:020000040800F2
:10000000008000201D250008F922000801230008B7
:10001000092300081123000819230008000000002C
:100020000000000000000000000000002123000884
:100030002F230008000000003D2300084B23000888
:100040006D2500086D2500086D2500086D25000848
:100050006D2500086D2500086D2500086D25000838
:100060006D2500086D2500086D2500086D25000828
:100070006D2500086D2500086D2500086D25000818
:100080006D250008000000006D2500086D250008A2
:10009000592300086D2500086D2500086D2500080E
:1000A0006D2500086D2500086D2500086D250008E8
:1000B0006D2500086D2500086D2500086D250008D8
:1000C0006D2500086D2500086D2500086D250008C8
:1000D0006D2500086D2500086D2500086D250008B8
:1000E0006D2500086D2500086D2500086D250008A8
:1000F0006D2500086D2500086D2500080000000032
:10010000000000006D250008000000006D250008BB
:100110006D250008000000006D2500086D25000811
:100120006D2500086D2500086D2500086D25000867
:100130006D25000800000000000000006D2500088B
:100140006D2500086D25000800000000000000007B
:10015000000000000000000000000000000000009F
:100160000000000000000000000000006D250008F5
:100170006D250008000000000000000000000000E5
:10018000000000006D2500080000000000000000D5
:10019000000000000000000000000000000000005F
:1001A00000000000000000006D2500086D2500081B
:1001B0006D2500086D2500086D2500080000000071
:1001C000000000006D250008000000000000000095
:0801D0006D2500086D250008F3
:1001E00010B5054C237833B9044B13B10448AFF371
:1001F00000800123237010BD500300200000000088
:10020000480C010808B5034B1BB103490348AFF381
:10021000008008BD0000000054030020480C0108C5
:1002200001F0FF01102A2BDB10F0070F08D010F8A7
:10023000013B013A8B422DD010F0070F42B3F6D1AB
:10024000F0B441EA012141EA014122F007047FF0C4
:1002500000070023F0E80256083C85EA010586EA1B
:10026000010685FA47F5A3FA87F586FA47F6A5FA57
:1002700087F68EB9EED1F0BC01F0FF0102F0070263
:1002800032B110F8013B013A83EA010313B1F8D10E
:100290000020704701387047002D06BF35460338EF
:1002A000073815F0010F07D1013015F4807F02BF28
:1002B000013015F4C03F0130F0BC0138704700BF79
:1002C000034613F8012B002AFBD1181A0138704796
:1002D00081F0004102E000BF83F0004330B54FEAF7
:1002E00041044FEA430594EA050F08BF90EA020F64
:1002F0001FBF54EA000C55EA020C7FEA645C7FEAF7
:10030000655C00F0E2804FEA5454D4EB5555B8BF19
:100310006D420CDD2C4480EA020281EA030382EA8A
:10032000000083EA010180EA020281EA0303362D1C
:1003300088BF30BD11F0004F4FEA01314FF4801CEF
:100340004CEA113102D0404261EB410113F0004F01
:100350004FEA03334CEA133302D0524263EB4303B8
:1003600094EA050F00F0A780A4F10104D5F1200E56
:100370000DDB02FA0EFC22FA05F2801841F10001B1
:1003800003FA0EF2801843FA05F359410EE0A5F185
:1003900020050EF1200E012A03FA0EFC28BF4CF0B6
:1003A000020C43FA05F3C01851EBE37101F000456C
:1003B00007D54FF0000EDCF1000C7EEB00006EEB79
:1003C0000101B1F5801F1BD3B1F5001F0CD3490803
:1003D0005FEA30004FEA3C0C04F101044FEA44525A
:1003E00012F5800F80F09A80BCF1004F08BF5FEAE1
:1003F000500C50F1000041EB045141EA050130BDC1
:100400005FEA4C0C404141EB0101013C28BFB1F5D2
:10041000801FE9D291F0000F04BF01460020B1FA1D
:1004200081F308BF2033A3F10B03B3F120020CDAF0
:100430000C3208DD02F1140CC2F10C0201FA0CF0CE
:1004400021FA02F10CE002F11402D8BFC2F1200C33
:1004500001FA02F120FA0CFCDCBF41EA0C019040E9
:10046000E41AA2BF01EB0451294330BD6FEA040432
:100470001F3C1CDA0C340EDC04F11404C4F120021D
:1004800020FA04F001FA02F340EA030021FA04F32F
:1004900045EA030130BDC4F10C04C4F1200220FA86
:1004A00002F001FA04F340EA0300294630BD21FAC4
:1004B00004F0294630BD94F0000F83F4801306BF8A
:1004C00081F480110134013D4EE77FEA645C18BF7E
:1004D0007FEA655C29D094EA050F08BF90EA020F15
:1004E00005D054EA000C04BF1946104630BD91EA0D
:1004F000030F1EBF0021002030BD5FEA545C05D110
:100500004000494128BF41F0004130BD14F580044E
:100510003CBF01F5801130BD01F0004545F0FE41C2
:1005200041F470014FF0000030BD7FEA645C1ABFF7
:10053000194610467FEA655C1CBF0B46024650EA2E
:10054000013406BF52EA033591EA030F41F400215A
:1005500030BD00BF90F0000F04BF0021704730B5E0
:100560004FF4806404F132044FF000054FF00001B5
:1005700050E700BF90F0000F04BF0021704730B576
:100580004FF4806404F1320410F0004548BF40424B
:100590004FF000013EE700BF42004FEAE2014FEAA0
:1005A00031014FEA02701FBF12F07F4393F07F4F7B
:1005B00081F06051704732F07F4208BF704793F07E
:1005C0007F4F04BF41F40021704730B54FF4607491
:1005D00001F0004521F000411CE700BF50EA010294
:1005E00008BF704730B54FF000050AE050EA01023D
:1005F00008BF704730B511F0004502D5404261EBAD
:1006000041014FF4806404F132045FEA915C3FF4ED
:10061000D8AE4FF003025FEADC0C18BF03325FEA8A
:10062000DC0C18BF033202EBDC02C2F1200300FA3B
:1006300003FC20FA02F001FA03FE40EA0E0021FA60
:1006400002F11444BDE600BF70B54FF0FF0C4CF44E
:10065000E06C1CEA11541DBF1CEA135594EA0C0F00
:1006600095EA0C0F00F0DEF82C4481EA030621EA3B
:100670004C5123EA4C5350EA013518BF52EA033576
:1006800041F4801143F4801338D0A0FB02CE4FF028
:100690000005E1FB02E506F00042E0FB03E54FF058
:1006A0000006E1FB03569CF0000F18BF4EF0010E50
:1006B000A4F1FF04B6F5007F64F5407404D25FEA4C
:1006C0004E0E6D4146EB060642EAC62141EA5551FF
:1006D0004FEAC52040EA5E504FEACE2EB4F1FD0C41
:1006E00088BFBCF5E06F1ED8BEF1004F08BF5FEABF
:1006F000500E50F1000041EB045170BD06F0004671
:1007000046EA010140EA020081EA0301B4EB5C041D
:10071000C2BFD4EB0C0541EA045170BD41F4801115
:100720004FF0000E013C00F3AB8014F1360FDEBF3A
:10073000002001F0004170BDC4F10004203C35DA16
:100740000C341BDC04F11404C4F1200500FA05F399
:1007500020FA04F001FA05F240EA020001F000423A
:1007600021F0004110EBD37021FA04F642EB0601B0
:100770005EEA430E08BF20EAD37070BDC4F10C04DA
:10078000C4F1200500FA04F320FA05F001FA04F29E
:1007900040EA020001F0004110EBD37041F100018A
:1007A0005EEA430E08BF20EAD37070BDC4F1200595
:1007B00000FA05F24EEA020E20FA04F301FA05F2FD
:1007C00043EA020321FA04F001F0004121FA04F2A5
:1007D00020EA020000EBD3705EEA430E08BF20EA75
:1007E000D37070BD94F0000F0FD101F000464000AF
:1007F00041EB010111F4801F08BF013CF7D041EA31
:10080000060195F0000F18BF704703F00046520034
:1008100043EB030313F4801F08BF013DF7D043EA05
:100820000603704794EA0C0F0CEA135518BF95EABB
:100830000C0F0CD050EA410618BF52EA4306D1D142
:1008400081EA030101F000414FF0000070BD50EA61
:10085000410606BF1046194652EA430619D094EAEB
:100860000C0F02D150EA013613D195EA0C0F05D1D5
:1008700052EA03361CBF104619460AD181EA030129
:1008800001F0004141F0FE4141F470014FF00000E1
:1008900070BD41F0FE4141F4780170BD70B54FF07C
:1008A000FF0C4CF4E06C1CEA11541DBF1CEA1355FC
:1008B00094EA0C0F95EA0C0F00F0A7F8A4EB0504DE
:1008C00081EA030E52EA03354FEA013100F08880D5
:1008D0004FEA03334FF0805545EA131343EA12639E
:1008E0004FEA022245EA111545EA10654FEA002653
:1008F0000EF000419D4208BF964244F1FD0404F50C
:10090000407402D25B084FEA3202B61A65EB030567
:100910005B084FEA32024FF480104FF4002CB6EB24
:10092000020E75EB030E22BFB61A754640EA0C00A4
:100930005B084FEA3202B6EB020E75EB030E22BFE4
:10094000B61A754640EA5C005B084FEA3202B6EB25
:10095000020E75EB030E22BFB61A754640EA9C00E4
:100960005B084FEA3202B6EB020E75EB030E22BFB4
:10097000B61A754640EADC0055EA060E18D04FEA72
:10098000051545EA16754FEA06164FEAC30343EA12
:1009900052734FEAC2025FEA1C1CC0D111F4801FDF
:1009A0000BD141EA00014FF000004FF0004CB6E7D8
:1009B00011F4801F04BF01430020B4F1FD0C88BF77
:1009C000BCF5E06F3FF6AFAEB5EB030C04BFB6EB82
:1009D000020C5FEA500C50F1000041EB045170BD75
:1009E0000EF0004E4EEA113114EB5C04C2BFD4EBA2
:1009F0000C0541EA045170BD41F480114FF0000E26
:100A0000013C90E645EA060E8DE60CEA135594EAA1
:100A10000C0F08BF95EA0C0F3FF43BAF94EA0C0FA4
:100A20000AD150EA01347FF434AF95EA0C0F7FF419
:100A300025AF104619462CE795EA0C0F06D152EA6D
:100A400003353FF4FDAE1046194622E750EA410651
:100A500018BF52EA43067FF4C5AE50EA41047FF462
:100A60000DAF52EA43057FF4EBAE12E74FF0FF3CC7
:100A700006E000BF4FF0010C02E000BF4FF0010C98
:100A80004DF804CD4FEA410C7FEA6C5C4FEA430C11
:100A900018BF7FEA6C5C1BD001B050EA410C0CBF60
:100AA00052EA430C91EA030F02BF90EA020F0020C2
:100AB000704710F1000F91EA030F58BF994208BF29
:100AC00090422CBFD8176FEAE37040F001007047E6
:100AD0004FEA410C7FEA6C5C02D150EA013C07D13D
:100AE0004FEA430C7FEA6C5CD6D152EA033CD3D088
:100AF0005DF8040B704700BF8446104662468C4682
:100B00001946634600E000BF01B5FFF7B7FF0028B4
:100B100048BF10F1000F01BD4DF808EDFFF7F4FFDD
:100B20000CBF012000205DF808FB00BF4DF808ED68
:100B3000FFF7EAFF34BF012000205DF808FB00BF8B
:100B40004DF808EDFFF7E0FF94BF012000205DF8AD
:100B500008FB00BF4DF808EDFFF7CEFF94BF012062
:100B600000205DF808FB00BF4DF808EDFFF7C4FF5B
:100B700034BF012000205DF808FB00BF4FEA410CA4
:100B80007FEA6C5C02D150EA013C0AD14FEA430C87
:100B90007FEA6C5C02D152EA033C02D14FF00000C4
:100BA00070474FF0010070474FEA410212F5001202
:100BB00015D211D56FF47873B3EB625212D94FEAA4
:100BC000C12343F0004343EA505311F0004F23FA8E
:100BD00002F018BF404270474FF00000704750EAE3
:100BE000013005D111F0004008BF6FF000407047A0
:100BF0004FF00000704700BF4A0011D212F50012FA
:100C000011D20DD56FF47873B3EB62520ED44FEA64
:100C1000C12343F0004343EA505323FA02F07047E4
:100C20004FF00000704750EA013002D14FF0FF3022
:100C300070474FF0000070474FEA4102B2F1E043C5
:100C400024BFB3F5001CDCF1FE5C0DD901F0004CB3
:100C50004FEAC0024CEA5070B2F1004F40EB830003
:100C600008BF20F00100704711F0804F21D113F12F
:100C70003872BCBF01F00040704741F480114FEA68
:100C80005252C2F11802C2F1200C10FA0CF320FAF1
:100C900002F018BF40F001004FEAC1234FEAD3230E
:100CA00003FA0CFC40EA0C0023FA02F34FEA430378
:100CB000CCE77FEA625307D150EA01331EBF4FF001
:100CC000FE4040F44000704701F0004040F0FE401C
:100CD00040F40000704700BF38B5002200230446EE
:100CE0000D46FFF723FF28B920462946BDE83840C6
:100CF00000F00AB8204605F1004100F005F8404236
:100D000061EB410138BD00BFD0B50C4B0022064657
:100D10000F46FFF799FCFFF76FFF0446FFF71AFC39
:100D2000074B0022FFF790FC02460B46304639463F
:100D3000FFF7D2FAFFF760FF2146D0BD0000F03D7B
:100D40000000F04180B582B000AF01F010FC00F06F
:100D5000B9FE01F093F800F0E3FF0BF0F5F800F0B6
:100D60006DFE00F0FFFE00F075FF01F00FF800F0DF
:100D700047F80346FB711B491B480BF015F9034666
:100D8000002B2AD0184A194919480DF047FAFF21BB
:100D9000154800F05BFB164B164A174917480DF033
:100DA0003DFA164913480DF060FB4FF4806113487B
:100DB00000F030FB4FF480610D4800F02BFB4FF446
:100DC00080610E4800F026FB0A490A2000F0CAFDA7
:100DD0000346002B01DB00F01DF90A2001F038FC6E
:100DE000C5E700BFB8110020B8100020600C010852
:100DF000B8040020B8080020640C0108B80C0020DA
:100E000080B584B000AF0023FB734FF400714FF046
:100E1000904003F0AFF90346002B0CD04FF4007163
:100E20004FF0904003F0A6F90346002B03D0FB7B64
:100E300063F07F03FB734FF400714FF0904003F0B9
:100E400099F90346002B0CD04FF400714FF09040FD
:100E500003F090F90346002B03D0FB7B43F04003E3
:100E6000FB734FF400714FF0904003F083F9034699
:100E7000002B0CD04FF400714FF0904003F07AF942
:100E80000346002B03D0FB7B43F02003FB734FF49E
:100E900000714FF0904003F06DF90346002B0CD029
:100EA0004FF400714FF0904003F064F90346002BBB
:100EB00003D0FB7B43F01003FB734FF40051514808
:100EC00003F058F90346002B0BD04FF400514D4866
:100ED00003F050F90346002B03D0FB7B43F00803DB
:100EE000FB730023BB6001214FF0904003F042F9F7
:100EF0000346002B0AD04FF40041424803F03AF970
:100F00000346002B02D00023BB6037E001214FF0E5
:100F1000904003F02FF90346002B0AD04FF4004114
:100F2000384803F027F90346002B02D10123BB60A8
:100F300024E001214FF0904003F01CF90346002B00
:100F40000AD14FF400412F4803F014F90346002B57
:100F500002D10223BB6011E001214FF0904003F069
:100F600009F90346002B09D14FF40041254803F04D
:100F700001F90346002B01D00323BB60224B1B6801
:100F8000BA6813447B607B68002B35D01E4ABB686F
:100F900013607B68002B02DA7B6804337B601B4B99
:100FA0001A687B681344194A1360184B1A68184B67
:100FB0001B689A4203DB154B00221A6007E0134BB3
:100FC0001B68002B03DA124B1B68104A1360FB7B73
:100FD00023F00303FB737B68002B04DAFB7B43F0F5
:100FE0000203FB7306E07B68002B03DDFB7B43F011
:100FF0000103FB730023BB60FB7B18461037BD4623
:1010000080BD00BF00080048BC110020C0110020B6
:1010100000000020F0B52DED028B93B004AF98498D
:10102000984800F0BEFC0346002B7CDBFF2387F8CA
:1010300037309349944800F0B4FC0346052B03D1A4
:10104000002387F8373024E08D49904800F0A9FC50
:101050000346052B03D1012387F8373019E088496F
:101060008B4800F09EFC0346052B09D14FF47A60B3
:1010700000F078FA4FF48061814800F0CBF9A2E1EA
:10108000844800F0AEFC4FF480617D4800F0C2F966
:1010900099E197F937301A467F4980480DF0BEF83C
:1010A0007E4800F09EFC7648FFF70AF903460A2BBB
:1010B00030D9734B9B7A303B87F82D3097F82D3021
:1010C000032B1ED897F82D2097F937301146184674
:1010D00000F0C2FA87ED0A0AB86AFFF75DFA024625
:1010E0000B4697F93710012901D16D4900E06D4990
:1010F00000916D4969480DF091F8684800F071FC65
:1011000011E06A4800F06DFC4FF480615C4800F02B
:1011100081F958E1664800F064FC4FF4806158485A
:1011200000F078F94FE15649624800F03AFC034676
:10113000002B4BDB5248FFF7C3F80346052B3CD985
:101140004F4B5B79303B87F8273097F82730032BDC
:1011500008D9594800F045FC4FF48061484800F038
:1011600059F930E1002387F836304549534800F0FB
:1011700018FC0346002B03D0012387F8363013E018
:101180003F494F4800F00DFC0346002B03D00023DD
:1011900087F8363008E04B4800F023FC4FF48061BC
:1011A000374800F037F90EE197F8362097F82730E6
:1011B0001146184600F066F908E0434800F011FCBB
:1011C0004FF480612E4800F025F9FCE02C493F489F
:1011D00000F0E7FB0346002BC0F2F5802848FFF73C
:1011E0006FF803460A2B40F2EE804FF480612B48E3
:1011F00000F010F9364B3B62364BFB61FA693B6AF3
:10120000D31A0133194601200BF016FC0346BB61CB
:10121000FA693B6AD31A1A46396AB8690DF02DF992
:10122000B8690BF005FC53EC102B10461946FFF77C
:1012300003FD03467B61BA69274918480CF0EEFFAD
:10124000164800F0CEFB4FF48061144800F0E2F83D
:101250000021002000F000FA87ED0C0A0023FB8536
:1012600097ED057AD7ED0C7AB4EEE77AF1EE10FA45
:1012700001DD0A2301E06FF009033B6196E000BF46
:10128000B80800206C0C0108740C01087C0C0108E3
:10129000840C01088C0C0108A80C0108B80C002073
:1012A000B40C0108B80C0108BC0C0108C80C0108FA
:1012B000E40C0108000D0108080D0108240D0108C7
:1012C000280D0108300D01084C0D0108680D0108BA
:1012D000C1080020C6080020740D0108D1229B3FE0
:1012E00000F07F453B699AB2FB8D1344FB85FB8D73
:1012F000184600F071F80021002000F0ADF987EDEC
:101300000C0A002000F090F903461B6807EE903AA3
:10131000B8EE678A012000F087F903461B6807EEE4
:10132000903AB8EE677AC8EE077A1FED147A67EE46
:10133000877AC7ED037A4FF47A6000F013F9F0EE84
:10134000406A97ED037AC7EE267A1FED1B7A67EEA7
:10135000877AC7ED027AD7ED027A5FED1F6A87EED2
:10136000A67AFB8D07EE903AF8EEE77A67EE277AD9
:10137000C7ED017AFE8D7868FFF70EF904460D4639
:10138000386BFFF709F902460B46CDE90223CDE998
:10139000004532460E490F480CF040FF0D4800F062
:1013A00020FB4FF480610B4800F034F897ED0C7A85
:1013B000D7ED057AB4EEE77AF1EE10FA03D5FB8D9E
:1013C000B3F57A7F8ED33C37BD46BDEC028BF0BDC2
:1013D000840D0108B80C002080B58AB000AF034628
:1013E000FB806023FB60FB883B6100237B61002363
:1013F000FB6107F10C0304221946054805F002FFC2
:101400000421034805F0FEFD00BF2837BD4680BD1E
:101410006C04002080B485B000AF78600B467B8000
:101420000023FB6007E0FB687A68134400221A700F
:10143000FB680133FB607B88FA689A42F3DB00BFEC
:1014400000BF1437BD465DF8047B704780B485B09B
:1014500000AF78600B467B800023FB6007E0FB68F1
:101460007A68134400221A70FB680133FB607B88A2
:10147000FA689A42F3DB00BF00BF1437BD465DF83F
:10148000047B704780B5C4B000AF024607F588738F
:10149000A3F209131A7007F58873A3F585730A463A
:1014A0001A70002387F80B3107F58873A3F209132C
:1014B0001B78032B28D801A252F823F0CD14000882
:1014C000DD140008ED140008FB1400084FF09043F1
:1014D000C7F80C31092387F80B3119E04FF090431E
:1014E000C7F80C310B2387F80B3111E0194BC7F803
:1014F0000C310B2387F80B310AE0174BC7F80C317E
:10150000042387F80B3103E0144800F06AFA1DE069
:1015100097F80B3199B207F58873A3F585731B789B
:101520001A46D7F80C0102F03DFE97F80B2107F59B
:101530008873A3F585731B7807F10C0008490CF03C
:101540006DFE07F10C03184600F04BFA07F588779B
:10155000BD4680BD0008004800040048A80D0108F1
:10156000C80D010880B58CB000AF0346FB8007F1C1
:1015700008032022002118460CF0B3FE284BBB6064
:101580000623FB6000233B617F237B610423BB6157
:101590000023FB614FF00003FB6200237B8527E003
:1015A00007F1080319461F4801F012FE0346002BFD
:1015B00001D000F003FD1B4801F068FC0346002B3E
:1015C00001D000F0FBFC4FF0FF31164801F01AFD8E
:1015D000144801F0EFFD07EE900AF8EE677A97EDF8
:1015E0000B7A77EE277AC7ED0B7A7B8D01337B85FB
:1015F0007A8DFB889A42D3D3FB8807EE903AB8EEF7
:10160000E77AD7ED0B6AC6EE877AC7ED0B7AFB6AED
:1016100007EE903AB0EE670A3037BD4680BD00BF96
:10162000000084CB6C03002080B485B000AF7860EC
:101630007B68002B01D1054B00E0054BFB60FB688C
:1016400018461437BD465DF8047B7047AA75FF1F26
:10165000AB75FF1F0000000080B52DED028B92B02E
:1016600000AF03460A46FB711346BB7107F108033E
:101670002022002118460CF034FE97F90730002B89
:1016800002D0012B28D04FE0BB79032B1ED801A23A
:1016900052F823F0A5160008AF160008B916000886
:1016A000C31600089A4B7B649A4B7B6313E09A4BFA
:1016B0007B64984B7B630EE0984B7B64954B7B631C
:1016C00009E0974B7B64974B7B6304E0964800F0FE
:1016D00088F9964B09E12CE0BB79032B1ED801A2B7
:1016E00052F823F0F5160008FF1600080917000845
:1016F000131700088E4B7B648A4B7B6313E0864B89
:101700007B64884B7B630EE0844B7B64814B7B6303
:1017100009E0884B7B64834B7B6304E0864800F0E0
:1017200060F9864BE1E004E0854800F05AF9854B0A
:10173000DBE07B6CBB600623FB6000233B617F2307
:101740007B610423BB610023FB614FF000033B641A
:101750000023FB8727E007F1080319466D4801F0D5
:1017600037FD0346002B01D000F028FC694801F04A
:101770008DFB0346002B01D000F020FC4FF0FF3121
:10178000644801F03FFC634801F014FD07EE900A45
:10179000F8EE677A97ED107A77EE277AC7ED107A30
:1017A000FB8F0133FB87FB8FB3F57A6FD3D397EDB4
:1017B000107ADFED656AC7EE267AC7ED107A002051
:1017C000FFF732FF03461B6807EE903AB8EE678AD0
:1017D0000120FFF729FF03461B6807EE903AB8EE99
:1017E000677AC8EE077A9FED597A67EE877AC7ED78
:1017F0000C7A4FF47A60FFF7B5FEF0EE406A97ED91
:101800000C7AC7EE267A9FED527A67EE877AC7ED9B
:101810000B7A97ED0B7ADFED4E6AC7EE267A97EDDD
:10182000107A67EE277AC7ED0A7A4FF00003BB63A0
:1018300097F90730002B02D0012B47D04FE0BB793E
:10184000032B30D0032B3BDC012B02DC002B03DA13
:1018500036E0022B1AD033E0B86AFEF79DFE28A3CB
:10186000D3E90023FEF7F0FE02460B461046194668
:1018700025A3D3E90023FFF711F802460B461046D3
:101880001946FFF7D9F90346BB631EE0D7ED0A7A84
:10189000B3EE097A27EE877AF2EE046AC7EE267A6B
:1018A000C7ED0E7A11E0D7ED0A7AB2EE0E7A27EE86
:1018B000877AF2EE046AC7EE267AC7ED0E7A04E064
:1018C000244800F08EF8244B0FE00DE097ED0A7AE3
:1018D000F3EE096AC7EE267AC7ED0E7A04E01F48D8
:1018E00000F07FF81E4B00E0BB6B07EE903AB0EEC5
:1018F000670A4837BD46BDEC028B80BDAFF3008060
:10190000295C8FC2F5A84540713D0AD7A3702340DA
:101910000008302E6C030020001060320080F03E82
:101920000040C03AD8030020DC0D0108000080C050
:101930002000F0141000C010F80D01080000A0C035
:10194000140E01080000C0C000007A45D1229B3F60
:1019500000F07F45300E0108000030C1500E010834
:10196000000040C180B584B000AF03463960FB7110
:101970003B68002B02D14FF0FF330EE0FB79194694
:1019800038680CF0B6FCF860FB68002B03D0FA68EE
:101990003B68D31A01E04FF0FF3318461037BD46BD
:1019A00080BD80B584B000AF786039607B68002B63
:1019B00002D03B68002B02D14FF0FF330DE0796875
:1019C00038680CF0B5FCF860FB68002B03D0FA68AF
:1019D0003B68D31A01E04FF0FF3318461037BD467D
:1019E00080BD80B5ADF5805D82B000AF07F1080322
:1019F00043F8040C07F108031A4607F1080352F8EC
:101A0000041C18460CF031FD07F108031846FEF7D8
:101A100057FC03469AB207F10803114618460AF02C
:101A2000BBFB07F108034FF480511846FFF7F2FCA7
:101A300000BF07F580570837BD4680BD80B500AFB1
:101A40001C4B0022C3F8C4221A4B0022C3F8BC224C
:101A5000184B0022C3F8B822164B012283F89C22AF
:101A6000144BCC221A7000221349124809F04CF989
:101A70000346002B01D000F0A1FA10490D4809F0EF
:101A800073F90346002B01D000F098FA0C4909487D
:101A900009F094F80346002B01D000F08FFA0548B6
:101AA00009F089F90346002B01D000F087FA00BF46
:101AB00080BD00BFD4110020340100201C00002094
:101AC0002001002080B594B000AF07F11803382240
:101AD000002118460CF005FC3B1D00221A605A60DC
:101AE0009A60DA601A614FF4007004F0A7F82A23B4
:101AF000BB614FF480737B624023BB620123FB62B6
:101B000001233B6302237B630223BB630223FB634A
:101B100012233B6402237B640223BB640223FB6425
:101B200007F11803184604F03DF90346002B01D0D5
:101B300000F044FA0F237B600323BB600023FB60AB
:101B400000233B6100237B613B1D0221184604F00A
:101B50003BFC0346002B01D000F030FA00BF5037A9
:101B6000BD4680BD80B58CB000AF07F124030022D4
:101B70001A605A609A603B1D2022002118460CF022
:101B8000B0FB324B4FF0A0421A60304B4FF40032A2
:101B90005A602E4B00229A602C4B0022DA602B4BAD
:101BA00000221A61294B00225A61284B04229A61B3
:101BB000264B00221A77254B00225A77234B01220D
:101BC0001A62224B002283F82420204B0022DA6282
:101BD0001E4B00221A631D4B002283F838201B4B3A
:101BE0000022DA63194B002283F84020174800F0E6
:101BF000C9FF0346002B01D000F0E0F900237B620F
:101C000007F124031946114801F07EFF0346002B1B
:101C100001D000F0D3F90E4B7B600623BB6000239C
:101C2000FB607F233B6104237B610023BB613B1D81
:101C30001946064801F0CCFA0346002B01D000F00B
:101C4000BDF900BF3037BD4680BD00BF6C0300202A
:101C50000080F03E80B588B000AF3B4620220021D6
:101C600018460CF03EFB2B4B2B4A1A60294B4FF4C5
:101C700000325A60274B00229A60264B0022DA601D
:101C8000244B00221A61234B00225A61214B04226B
:101C90009A61204B00221A771E4B00225A771D4B67
:101CA00001221A621B4B002283F82420194B0022C8
:101CB000DA62184B00221A63164B002283F8382090
:101CC000144B0022DA63134B002283F840201148A2
:101CD00000F058FF0346002B01D000F06FF90F4BC6
:101CE0003B6006237B600023BB607F23FB600423F3
:101CF0003B6100237B613B461946064801F068FAC8
:101D00000346002B01D000F059F900BF2037BD4633
:101D100080BD00BFD8030020000100501000C0109B
:101D200080B500AF174B184A1A60164B00225A6054
:101D3000144B7F229A60134BFF22DA60114B002272
:101D40001A61104B00225A610E4B00229A610D4B12
:101D50004FF08042DA610B4B00221A62094804F00E
:101D600007FF0346002B01D000F028F900220021D4
:101D7000044805F01AF80346002B01D000F01EF9C4
:101D800000BF80BD440400200028004080B58EB014
:101D900000AF07F1280300221A605A609A60DA60E7
:101DA00007F11C0300221A605A609A603B46002229
:101DB0001A605A609A60DA601A615A619A612D4B12
:101DC0002D4A1A602B4B47225A602A4B00229A60F8
:101DD000284B4FF6FF72DA60264B00221A61254B22
:101DE00000229A61234805F054F80346002B01D0E5
:101DF00000F0E4F84FF48053BB6207F12803194662
:101E00001C4805F013FB0346002B01D000F0D6F868
:101E1000184805F095F80346002B01D000F0CEF8E5
:101E20000023FB6100237B6207F11C031946114864
:101E300006F04AF80346002B01D000F0BFF86023FB
:101E40003B6000237B600023BB6000233B613B467B
:101E500004221946074805F0D5F90346002B01D0A6
:101E600000F0ACF8034800F011FA00BF3837BD4667
:101E700080BD00BF6C0400200004004080B588B025
:101E800000AF07F10C0300221A605A609A60DA6012
:101E90001A61474BDB6C464A43F00403D364444B5E
:101EA000DB6C03F00403BB60BB68414BDB6C404A56
:101EB00043F00103D3643E4BDB6C03F001037B6012
:101EC0007B683B4BDB6C3A4A43F00203D364384BEC
:101ED000DB6C03F002033B603B68002244F24041AC
:101EE000344802F05FF900224CF22A114FF0904082
:101EF00002F058F90022A0212F4802F053F944F2D1
:101F00004043FB6001233B6100237B610023BB61F5
:101F100007F10C031946274801F0AAFF4FF40843C4
:101F2000FB6000233B6100237B6107F10C03194632
:101F3000204801F09DFF4CF22A13FB6001233B6116
:101F400000237B610023BB6107F10C0319464FF0AE
:101F5000904001F08DFF4FF40073FB6000233B6164
:101F600000237B6107F10C0319464FF0904001F00C
:101F70007FFF1023FB6000233B6100237B6107F19F
:101F80000C0319460C4801F073FFA023FB600123EA
:101F90003B6100237B610023BB6107F10C03194601
:101FA000054801F065FF00BF2037BD4680BD00BF7A
:101FB00000100240000800480004004880B400AF50
:101FC00072B600BF00BFFDE780B582B000AF134B13
:101FD0001B6E124A43F001031366104B1B6E03F095
:101FE00001037B607B680D4B9B6D0C4A43F0805373
:101FF00093650A4B9B6D03F080533B603B68002068
:1020000000F048FB00F06EFB002000F057FB03F0EF
:10201000B9FE00BF0837BD4680BD00BF00100240BA
:1020200080B59EB000AF786007F1640300221A60AB
:102030005A609A60DA601A6107F120034422002195
:1020400018460CF04EF97B681B68B3F1A04F3ED1E7
:102050004FF400433B624FF00053FB6507F1200350
:10206000184604F095FB0346002B01D0FFF7A6FFAE
:10207000534B1B680133524A1360514B1B68012BB1
:102080000BD1504BDB6C4F4A43F40053D3644D4BA0
:10209000DB6C03F40053FB61FB694A4BDB6C494A80
:1020A00043F00203D364474BDB6C03F00203BB61D4
:1020B000BB6945F203037B660323BB660023FB6613
:1020C00007F164031946404801F0D2FE73E07B68D3
:1020D0001B683E4A93426ED14FF400433B624FF07F
:1020E0000053FB6507F12003184604F051FB03463B
:1020F000002B01D0FFF762FF314B1B680133304AE0
:1021000013602F4B1B68012B0BD12E4BDB6C2D4A20
:1021100043F40053D3642B4BDB6C03F400537B611B
:102120007B69284BDB6C274A43F00103D364254BC2
:10213000DB6C03F001033B613B69224BDB6C214A02
:1021400043F00403D3641F4BDB6C03F00403FB6018
:10215000FB681C4BDB6C1B4A43F00203D364194B36
:10216000DB6C03F00203BB60BB6880237B66032348
:10217000BB660023FB6607F1640319464FF09040ED
:1021800001F076FE10237B660323BB660023FB660B
:1021900007F1640319460E4801F06AFE40F6040395
:1021A0007B660323BB660023FB6607F164031946C5
:1021B000054801F05DFE00BF7837BD4680BD00BF19
:1021C000C41100200010024000040048000100502B
:1021D0000008004880B594B000AF786007F10C03A8
:1021E0004422002118460CF07CF87B681B68154AD5
:1021F000934223D14FF40023FB604FF40073FB6440
:1022000007F10C03184604F0C3FA0346002B01D073
:10221000FFF7D4FE0C4BD3F890300B4A43F4004345
:10222000C2F89030084B9B6D074A43F48063936576
:10223000054B9B6D03F48063BB60BB6800BF5037E8
:10224000BD4680BD002800400010024080B485B02B
:1022500000AF78607B681B680A4A93420BD10A4B37
:102260009B6D094A43F002039365074B9B6D03F096
:102270000203FB60FB6800BF1437BD465DF8047BBA
:10228000704700BF000400400010024080B588B0D5
:1022900000AF786007F10C0300221A605A609A6060
:1022A000DA601A617B681B68114A93421CD1114B9A
:1022B000DB6C104A43F00103D3640E4BDB6C03F07C
:1022C0000103BB60BB681023FB6002233B6100235A
:1022D0007B610023BB610223FB6107F10C031946FC
:1022E0004FF0904001F0C4FD00BF2037BD4680BDD7
:1022F000000400400010024080B400AF00BFFDE7C2
:1023000080B400AF00BFFDE780B400AF00BFFDE7C1
:1023100080B400AF00BFFDE780B400AF00BFFDE7B1
:1023200080B400AF00BFBD465DF8047B704780B449
:1023300000AF00BFBD465DF8047B704780B400AFBE
:1023400000BFBD465DF8047B704780B500AF00F06C
:1023500061F900BF80BD000080B500AF024802F007
:1023600029F800BF80BD00BFB846002080B400AF90
:1023700001231846BD465DF8047B704780B582B0E6
:1023800000AF786039600CF043F8034616221A60FB
:102390004FF0FF3318460837BD4680BD80B582B088
:1023A00000AF78604FF0FF317868FFF7E7FF00BFBC
:1023B000FDE780B586B000AFF860B9607A600023B1
:1023C0007B610AE0AFF300800146BB685A1CBA602B
:1023D000CAB21A707B6901337B617A697B689A4261
:1023E000F0DB7B6818461837BD4680BD80B586B0E7
:1023F00000AFF860B9607A6000237B6109E0BB68D8
:102400005A1CBA601B781846AFF300807B69013311
:102410007B617A697B689A42F1DB7B6818461837E2
:10242000BD4680BD80B483B000AF78604FF0FF330D
:1024300018460C37BD465DF8047B704780B483B006
:1024400000AF786039603B684FF400525A60002357
:1024500018460C37BD465DF8047B704780B483B0E6
:1024600000AF7860012318460C37BD465DF8047B49
:10247000704780B485B000AFF860B9607A6000231F
:1024800018461437BD465DF8047B704780B586B0AA
:1024900000AF7860144A154BD31A7B617B693B61AE
:1024A000134B1B68002B02D1114B124A1A60104BC0
:1024B0001A687B6813443A699A4207D20BF0A8FF66
:1024C00003460C221A604FF0FF3309E0084B1B68EB
:1024D000FB60074B1A687B681344054A1360FB686E
:1024E00018461837BD4680BD00800020000400005B
:1024F000C8110020004D002080B400AF064BD3F877
:102500008830054A43F47003C2F8883000BFBD46E6
:102510005DF8047B704700BF00ED00E00D48854684
:10252000FFF7EAFF0C480D490D4A002302E0D4589A
:10253000C4500433C4188C42F9D30A4A0A4C00230D
:1025400001E013600432A242FBD30BF067FFFEF7F9
:10255000F9FBFEE70080002000000020500300206F
:102560000013010850030020004D0020FEE780B555
:1025700082B000AF0023FB71032001F039FC0F2073
:1025800000F00EF80346002B02D00123FB7101E09E
:10259000FFF71AFDFB7918460837BD4680BD0000DD
:1025A00080B584B000AF78600023FB73164B1B68C6
:1025B000002B22D0154B1A68134B1B684FF47A710D
:1025C000B1FBF3F3B2FBF3F3184601F044FC03460E
:1025D000002B0FD17B680F2B09D8002279684FF0B0
:1025E000FF3001F010FC0A4A7B68136007E001230A
:1025F000FB7304E00123FB7301E00123FB73FB7B0E
:1026000018461037BD4680BD0C0000200400002095
:102610000800002080B400AF054B1A68054B1B680A
:102620001344034A136000BFBD465DF8047B704746
:10263000CC1100200C00002080B400AF034B1B68BD
:102640001846BD465DF8047B704700BFCC110020E2
:1026500080B584B000AF7860FFF7EEFFB8607B68AC
:10266000FB60FB68B3F1FF3F04D0094B1B68FA68BD
:102670001344FB6000BFFFF7DFFF0246BB68D31ABD
:10268000FA689A42F7D800BF00BF1037BD4680BD38
:102690000C00002080B483B000AF7860064B1B684C
:1026A00023F0300204497B6813430B6000BF0C37F2
:1026B000BD465DF8047B70473000014080B483B0B4
:1026C00000AF7860064B1B6823F0020204497B6868
:1026D00013430B6000BF0C37BD465DF8047B7047A9
:1026E0003000014080B582B000AF0F4B1B680E4A2E
:1026F00043F001031360FFF79FFF786008E0FFF7E6
:102700009BFF02467B68D31A0A2B01D9032306E0FC
:10271000054B1B6803F00803002BF0D0002318467C
:102720000837BD4680BD00BF3000014080B483B093
:1027300000AF786039607B689B6823F47C123B684B
:102740001A437B689A6000BF0C37BD465DF8047B76
:10275000704780B483B000AF786039607B689B6855
:1027600023F0E0723B681A437B689A6000BF0C3725
:10277000BD465DF8047B704780B483B000AF7860DD
:102780007B689B6803F0E07318460C37BD465DF824
:10279000047B704780B487B000AFF860B9607A609E
:1027A0003B60FB6860331A46BB689B0013447B6147
:1027B0007B691A68084B13407A6802F0F8413A685E
:1027C0000A43134343F000427B691A6000BF1C3781
:1027D000BD465DF8047B704700F0FF0380B485B010
:1027E00000AF786039607B6860331A463B689B00B5
:1027F0001344FB60FB681B6803F0F843184614376A
:10280000BD465DF8047B704780B487B000AFF860C8
:10281000B9607A60FB6860331A46BB689B0013445A
:102820007B617B691B6823F000427B681A437B69EC
:102830001A6000BF1C37BD465DF8047B704780B44A
:1028400087B000AFF860B9607A60FB6860331A4601
:10285000BB689B0013447B617B691B6823F080721B
:102860007B681A437B691A6000BF1C37BD465DF860
:10287000047B704780B487B000AFF860B9607A60BD
:10288000FB6860331A46BB689B0013447B617B691D
:102890001B6823F000727B681A437B691A6000BFD3
:1028A0001C37BD465DF8047B704780B483B000AF31
:1028B000786039607B685B6923F000423B681A43AB
:1028C0007B685A6100BF0C37BD465DF8047B7047DA
:1028D00080B483B000AF78607B68DB6803F440634A
:1028E000002B01D1012300E0002318460C37BD4620
:1028F0005DF8047B704780B487B000AFF860B960C2
:102900007A60FB6830331A46BB681B0A9B0003F0F1
:102910000C0313447B617B691A68BB6803F01F03D7
:102920001F2101FA03F3DB431A407B689B0E03F07F
:102930001F01BB6803F01F0301FA03F31A437B690D
:102940001A6000BF1C37BD465DF8047B704780B439
:1029500087B000AFF860B9607A60FB6814331A463C
:10296000BB685B0E9B0003F0040313447B617B692F
:102970001A68BB681B0D03F01F03072101FA03F35C
:10298000DB431A40BB681B0D03F01F03796801FA93
:1029900003F31A437B691A6000BF1C37BD465DF81C
:1029A000047B704780B485B000AFF860B9607A608E
:1029B000FB68D3F8B020BB68C3F31203DB431A40B3
:1029C0007B6803F018030849D940BB680B40C3F388
:1029D00012031A43FB68C3F8B02000BF1437BD468A
:1029E0005DF8047B704700BFFFFF070080B483B031
:1029F00000AF78607B689B6803F01F0318460C37B4
:102A0000BD465DF8047B704780B483B000AF78604A
:102A10007B689B6803F4604318460C37BD465DF83D
:102A2000047B704780B483B000AF78607B689B689C
:102A300023F0204323F03F037A68936000BF0C37F4
:102A4000BD465DF8047B704780B483B000AF78600A
:102A50007B689B6803F00053B3F1005F01D1012351
:102A600000E0002318460C37BD465DF8047B704734
:102A700080B483B000AF78607B689B6823F010431C
:102A800023F03F0343F080527B689A6000BF0C370D
:102A9000BD465DF8047B704780B483B000AF7860BA
:102AA0007B689B6803F08053B3F1805F01D1012301
:102AB00000E0002318460C37BD465DF8047B7047E4
:102AC00080B483B000AF78607B689B6823F00043DC
:102AD00023F03F0343F001027B689A6000BF0C378C
:102AE000BD465DF8047B704780B483B000AF78606A
:102AF0007B689B6803F00103012B01D1012300E0F7
:102B0000002318460C37BD465DF8047B704780B43F
:102B100083B000AF78607B689B6823F0004323F0AC
:102B20003F0343F004027B689A6000BF0C37BD4648
:102B30005DF8047B704780B483B000AF78607B6839
:102B40009B6803F00403042B01D1012300E0002360
:102B500018460C37BD465DF8047B704780B483B0DF
:102B600000AF78607B689B6803F00803082B01D1F5
:102B7000012300E0002318460C37BD465DF8047BB6
:102B80007047000090B589B000AF78600023FB77F4
:102B90000023FB607B68002B01D1012367E17B6888
:102BA0005B69002B7B68DB6D002B09D17868FFF730
:102BB00037FA7B6800221A667B68002283F8582067
:102BC0007B681B681846FFF73FFF0346002B04D0C5
:102BD0007B681B681846FFF725FF7B681B68184653
:102BE000FFF75AFF0346002B15D17B681B68184678
:102BF000FFF73EFFA04B1B689B09A04AA2FB0323E3
:102C00009B0901335B00FB6002E0FB68013BFB605A
:102C1000FB68002BF9D17B681B681846FFF73CFF67
:102C20000346002B0DD17B68DB6D43F010027B68FF
:102C3000DA657B681B6E43F001027B681A6601232C
:102C4000FB777B681B681846FFF775FF78617B6828
:102C5000DB6D03F01003002B40F000817B69002B3B
:102C600040F0FC807B68DB6D23F4817343F002024B
:102C70007B68DA657B681B681846FFF735FF0346FB
:102C8000002B11D14FF0A040FFF72EFF04467C48E7
:102C9000FFF72AFF03462343002B05D17B685B68BF
:102CA00019467848FFF742FD7B685B7F5A037B68D3
:102CB000DB6B1A437B68DB681A437B689B681A43AB
:102CC0007B6893F824301B041343BB617B6893F843
:102CD0002430012B06D17B689B6A013B5B04BA69F7
:102CE0001343BB617B68DB6A002B09D07B68DB6A1E
:102CF00003F478727B681B6B1343BA691343BB619F
:102D00007B681B68DA68604B13407A681268B9699F
:102D10000B43D3607B681B681B6923F040617B68B1
:102D20005A6B7B681B680A431A617B681B681846EC
:102D3000FFF714FF38617B69002B6DD13B69002BD5
:102D40006AD17B681B7F9A037B6893F838305B00FD
:102D50001343BB617B681B68DB6823F4804323F06B
:102D600002037A681268B9690B43D3607B681B69F8
:102D7000002B17D07B681B681A697B681B6842F4BC
:102D800080321A617B681B68D3F8C03023F47F530C
:102D900023F03F037A6811697A6812680B43C2F81E
:102DA000C03013E07B681B681A697B681B6822F4DB
:102DB00080321A617B681B68D3F8C0307A68126869
:102DC00023F47F5323F03F03C2F8C0307B6893F8AD
:102DD0004030012B18D17B681B681B6923F4FF630B
:102DE00023F004037A68516C7A68926C11437A6814
:102DF000D26C11437A68126D0A431A437B681B68D0
:102E000042F001021A6107E07B681B681A697B685F
:102E10001B6822F001021A617B685B69012B0CD1EF
:102E20007B681B681B6B23F00F017B681B6A5A1EB3
:102E30007B681B680A431A6307E07B681B681A6B90
:102E40007B681B6822F00F021A637B68DB6D23F03E
:102E5000030343F001027B68DA6507E07B68DB6D02
:102E600043F010027B68DA650123FB77FB7F18468D
:102E70002437BD4690BD00BF04000020632D3E05F1
:102E800000010050000300500740F0FF80B586B0FD
:102E900000AF78605948FFF7A9FD38617B681B686F
:102EA0001846FFF748FE0346002B40F09F807B68E2
:102EB00093F85830012B01D102239AE07B6801225C
:102EC00083F85820786800F073FD0346FB75FB7D9E
:102ED000002B40F086807B68DB6D23F4706323F069
:102EE000010343F480727B68DA657B681B68444A9F
:102EF000934202D07B681B6801E04FF0A0437A68E0
:102F00001268934202D03B69002B05D17B68DB6DD0
:102F100023F480127B68DA657B68DB6D03F48053F1
:102F2000B3F5805F06D17B681B6E23F006027B68D9
:102F30001A6602E07B6800221A667B681B681C2206
:102F40001A607B68002283F858207B681B682C4A33
:102F5000934202D07B681B6801E04FF0A0437A687F
:102F60001268934208D03B69002B05D03B69052BC2
:102F700002D03B69092B14D17B681B68DB6803F026
:102F80000073002B07D07B68DB6D23F4405343F4C0
:102F900080527B68DA657B681B681846FFF7B7FDCF
:102FA00026E07B68DB6D43F480127B68DA657B6822
:102FB0001B68134A934202D07B681B6801E04FF004
:102FC000A043FB60FB68DB6803F00073002B0FD0AD
:102FD0007B68DB6D23F4405343F480527B68DA65F1
:102FE00006E07B68002283F8582001E00223FB758D
:102FF000FB7D18461837BD4680BD00BF000300505A
:103000000001005080B588B000AF78603960674833
:10301000FFF7ECFC78617B689B69082B02D10823E1
:10302000FB612AE07B69002B05D07B69052B02D070
:103030007B69092B11D17B681B68DB6803F00103F6
:10304000002B07D07B68DB6D43F020027B68DA65DC
:103050000123A6E00423FB610FE05448FFF7D4FCF2
:103060000346002B07D07B68DB6D43F020027B68B2
:10307000DA65012395E00423FB61FFF7DDFA38618F
:1030800021E03B68B3F1FF3F1DD0FFF7D5FA0246C0
:103090003B69D31A3A689A4202D33B68002B12D19B
:1030A0007B681B681A68FB691340002B0BD17B6897
:1030B000DB6D43F004027B68DA657B68002283F8ED
:1030C000582003236DE07B681B681A68FB69134076
:1030D000002BD6D07B68DB6D43F400727B68DA6529
:1030E0007B681B681846FFF7F3FB0346002B1CD0D8
:1030F0007B685B7F002B18D17B681B681B6803F023
:103100000803082B11D17B68DB6D23F480727B6888
:10311000DA657B68DB6D03F48053002B05D17B6897
:10312000DB6D43F001027B68DA657B681B68204A2F
:10313000934202D07B681B6801E04FF0A0437A689D
:103140001268934208D07B69002B05D07B69052B60
:1031500002D07B69092B04D17B681B68DB68BB61EB
:103160000DE07B681B68124A934202D07B681B68A3
:1031700001E04FF0A043FB60FB68DB68BB61FB69CB
:10318000082B04D17B681B6808221A6008E0BB6921
:1031900003F48043002B03D17B681B680C221A6068
:1031A000002318462037BD4680BD00BF00030050F5
:1031B0000001005080B483B000AF78607B681B686A
:1031C0001B6C18460C37BD465DF8047B7047000049
:1031D00080B5B6B000AF78603960002387F8D7308B
:1031E0000023FB607B6893F85830012B01D1022348
:1031F000C8E37B68012283F858207B681B68184667
:10320000FFF799FC0346002B40F0AD837B681868FC
:103210003B6859683B681B681A46FFF76CFB7B6884
:103220001B681846FFF787FCC7F8D0007B681B684F
:103230001846FFF793FCC7F8CC00D7F8D030002B26
:1032400040F0D981D7F8CC30002B40F0D4813B68D6
:103250009B68B3F1004F0FD17B6818683B681B680F
:1032600000221946FFF773FB7B681B684FF0004193
:103270001846FFF71AFB0EE07B6818683B68196870
:103280003B689B681A46FFF762FB7B681B6800215E
:103290001846FFF70AFB3B685A697B681B68DB68C6
:1032A000DB0803F003035B0002FA03F3C7F8C8303E
:1032B0003B681B69042B22D07B6818683B6819693E
:1032C0003B681A68D7F8C830FFF764FA7B6818685B
:1032D0003B6819693B689B691A46FFF7B0FA7B683F
:1032E00018683B6819693B681B7F012B02D14FF0BE
:1032F000007300E000231A46FFF7BCFA7BE17B680D
:103300001B6800211846FFF769FA0346C3F312034E
:10331000002B0AD17B681B6800211846FFF75EFA74
:1033200003469B0E03F01F021EE07B681B68002112
:103330001846FFF753FA0346C7F8BC30D7F8BC303D
:1033400093FAA3F3C7F8B830D7F8B830C7F8C0304D
:10335000D7F8C030002B01D1202304E0D7F8C030CB
:10336000B3FA83F3DBB21A463B681B68C3F312035C
:10337000002B05D13B681B689B0E03F01F0318E070
:103380003B681B68C7F8B030D7F8B03093FAA3F3A6
:10339000C7F8AC30D7F8AC30C7F8B430D7F8B43091
:1033A000002B01D1202304E0D7F8B430B3FA83F323
:1033B000DBB29A4206D17B681B68002200211846C6
:1033C000FFF722FA7B681B6801211846FFF706FA0F
:1033D0000346C3F31203002B0AD17B681B6801214B
:1033E0001846FFF7FBF903469B0E03F01F021EE091
:1033F0007B681B6801211846FFF7F0F90346C7F800
:10340000A430D7F8A43093FAA3F3C7F8A030D7F8C4
:10341000A030C7F8A830D7F8A830002B01D120235E
:1034200004E0D7F8A830B3FA83F3DBB21A463B685E
:103430001B68C3F31203002B05D13B681B689B0E6E
:1034400003F01F0318E03B681B68C7F89830D7F8F3
:10345000983093FAA3F3C7F89430D7F89430C7F8AC
:103460009C30D7F89C30002B01D1202304E0D7F802
:103470009C30B3FA83F3DBB29A4206D17B681B68B7
:10348000002201211846FFF7BFF97B681B68022163
:103490001846FFF7A3F90346C3F31203002B0AD122
:1034A0007B681B6802211846FFF798F903469B0EBC
:1034B00003F01F021EE07B681B6802211846FFF71D
:1034C0008DF90346C7F88C30D7F88C3093FAA3F304
:1034D000C7F88830D7F88830C7F89030D7F89030E0
:1034E000002B01D1202304E0D7F89030B3FA83F306
:1034F000DBB21A463B681B68C3F31203002B05D1ED
:103500003B681B689B0E03F01F0316E03B681B68BB
:10351000C7F88030D7F8803093FAA3F3FB67FB6FCE
:10352000C7F88430D7F88430002B01D1202304E081
:10353000D7F88430B3FA83F3DBB29A4206D17B68C2
:103540001B68002202211846FFF75EF97B681B68A2
:1035500003211846FFF742F90346C3F31203002B79
:103560000AD17B681B6803211846FFF737F9034629
:103570009B0E03F01F0217E07B681B6803211846AF
:10358000FFF72CF903467B677B6F93FAA3F33B6746
:103590003B6FBB67BB6F002B01D1202303E0BB6FE8
:1035A000B3FA83F3DBB21A463B681B68C3F312031A
:1035B000002B05D13B681B689B0E03F01F0311E035
:1035C0003B681B68BB66BB6E93FAA3F37B667B6E9E
:1035D000FB66FB6E002B01D1202303E0FB6EB3FAE8
:1035E00083F3DBB29A4206D17B681B680022032179
:1035F0001846FFF709F97B681B681846FFF774FA4D
:103600000346002B40F040817B6818683B681968CE
:103610003B68DB681A46FFF7C5F93B68DB688F4AF1
:10362000934240F031817B6818683B681B68C3F3A4
:103630001203002B0BD13B681B689B0E013303F078
:103640001F03092B94BF01230023DBB219E03B6861
:103650001B68FB65FB6D93FAA3F3BB65BB6D3B6613
:103660003B6E002B01D1202303E03B6EB3FA83F3C2
:10367000DBB2013303F01F03092B94BF01230023A6
:10368000DBB2002B79D03B681B68C3F31203002B1D
:1036900007D13B681B689B0E01339B0603F0F84281
:1036A00015E03B681B683B653B6D93FAA3F3FB6435
:1036B000FB6C7B657B6D002B01D1202303E07B6DD0
:1036C000B3FA83F3DBB201339B0603F0F8423B68A5
:1036D0001B68C3F31203002B09D13B681B689B0EC8
:1036E000013303F01F03012101FA03F317E03B68E4
:1036F0001B687B647B6C93FAA3F33B643B6CBB64F9
:10370000BB6C002B01D1202303E0BB6CB3FA83F325
:10371000DBB2013303F01F03012101FA03F342EA94
:1037200003013B681B68C3F31203002B0AD13B68FB
:103730001B689B0E013303F01F0213465B0013440A
:103740001B0518E03B681B68BB63BB6B93FAA3F3D4
:103750007B637B6BFB63FB6B002B01D1202303E0BE
:10376000FB6BB3FA83F3DBB2013303F01F021346A2
:103770005B0013441B050B4381E03B681B68C3F3EC
:103780001203002B07D13B681B689B0E01339B067D
:1037900003F0F84215E03B681B68FB62FB6A93FA92
:1037A000A3F3BB62BB6A3B633B6B002B01D12023BD
:1037B00003E03B6BB3FA83F3DBB201339B0603F008
:1037C000F8423B681B68C3F31203002B09D13B6826
:1037D0001B689B0E013303F01F03012101FA03F361
:1037E00017E03B681B683B623B6A93FAA3F3FB61FB
:1037F000FB697B627B6A002B01D1202303E07B6A9B
:10380000B3FA83F3DBB2013303F01F03012101FAA2
:1038100003F342EA03013B681B68C3F31203002B66
:103820000DD13B681B689B0E013303F01F0213464A
:103830005B0013441E3B1B0543F000731EE03B6816
:103840001B687B617B6993FAA3F33B613B69BB61B6
:10385000BB69002B04D1202306E000BF00007F409D
:10386000BB69B3FA83F3DBB2013303F01F021346E3
:103870005B0013441E3B1B0543F000730B433A6887
:1038800092681946FFF763F83B681A683F4B13408C
:10389000002B71D03E48FEF76FFFC7F8C4003B68AD
:1038A0001B683C4A934204D03B681B683A4A9342E7
:1038B00027D1D7F8C43003F40003002B21D17B6853
:1038C0001B68B3F1A04F57D1D7F8C43043F40003BD
:1038D00019462F48FEF73DFF304B1B689B09304AC5
:1038E000A2FB03239B095A1C13465B0013449B0055
:1038F000FB6002E0FB68013BFB60FB68002BF9D139
:103900003AE03B681B68274A934213D1D7F8C4308A
:1039100003F08073002B0DD17B681B68224A934211
:103920002AD0D7F8C43043F0807319461848FEF700
:1039300010FF21E03B681B681C4A93421CD1D7F85A
:10394000C43003F48003002B16D17B681B68164A31
:10395000934211D0D7F8C43043F4800319460C4881
:10396000FEF7F7FE08E07B68DB6D43F020027B6822
:10397000DA65012387F8D7307B68002283F8582066
:1039800097F8D7301846D837BD4680BD000008806C
:1039900000030050000021C31000C090040000206C
:1039A000632D3E05000052C700010050000084CB8B
:1039B00080B584B000AF78600023BB607B681B6873
:1039C0001846FFF791F80346002B69D17B681B6806
:1039D0009A68364B1340002B0DD07B68DB6D43F0AB
:1039E00010027B68DA657B681B6E43F001027B681E
:1039F0001A66012355E07B681B681846FFF760F8DC
:103A00002B48FEF7B9FE034603F40003002B13D046
:103A1000284B1B689B09284AA2FB03239B095A1CBD
:103A200013465B0013449B00BB6002E0BB68013B94
:103A3000BB60BB68002BF9D1FEF7FEFDF86028E003
:103A40007B681B681846FFF74FF80346002B04D12C
:103A50007B681B681846FFF733F8FEF7EDFD02465A
:103A6000FB68D31A022B14D97B681B681B6803F010
:103A70000103012B0DD07B68DB6D43F010027B68E6
:103A8000DA657B681B6E43F001027B681A660123CE
:103A900007E07B681B681B6803F00103012BCFD193
:103AA000002318461037BD4680BD00BF3F00008090
:103AB0000003005004000020632D3E0580B483B055
:103AC00000AF78607B689B6803F00103012B01D194
:103AD000012300E0002318460C37BD465DF8047B47
:103AE000704780B483B000AF78607B689B6803F058
:103AF0000403042B01D1012300E0002318460C37F6
:103B0000BD465DF8047B704790B5A1B000AF78600A
:103B10003960002387F87F307B6893F85830012B99
:103B200001D102238BE07B68012283F85820002317
:103B30007B660023BB667B681B68B3F1A04F02D194
:103B4000414BBB6001E00023BB60BB68002B0BD185
:103B50007B68DB6D43F020027B68DA657B680022BE
:103B600083F8582001236AE0BB681846FFF7B9FFC5
:103B7000B8677B681B681846FFF7B3FF0346002B46
:103B80004CD1BB6F002B49D1304B7B673B681B6826
:103B9000002B28D07B6F9B6823F460423B685968F8
:103BA0007B6893F838305B030B431A437B6F9A6052
:103BB0004FF0A040FFF782FF04462348FFF77EFF47
:103BC00003462343002B33D17B6F9B6823F471633F
:103BD00023F00F033A6811683A6892680A431A435F
:103BE0007B6F9A6024E07B6F9B6823F460427B6F5D
:103BF0009A604FF0A040FFF761FF04461248FFF7BC
:103C00005DFF03462343002B12D17B6F9B6823F497
:103C1000716323F00F037A6F936009E07B68DB6DBB
:103C200043F020027B68DA65012387F87F3000E0EB
:103C300000BF7B68002283F8582097F87F30184631
:103C40008437BD4690BD00BF000100500003005006
:103C500080B485B000AF78607B6803F00703FB6039
:103C60000C4BDB68BB60BA684FF6FF031340BB60C8
:103C7000FB681A02BB68134343F0BF6343F400338D
:103C8000BB60044ABB68D36000BF1437BD465DF813
:103C9000047B704700ED00E080B400AF044BDB68AC
:103CA0001B0A03F007031846BD465DF8047B704706
:103CB00000ED00E080B483B000AF0346FB7197F9DC
:103CC0000730002B0BDBFB7903F01F02074997F944
:103CD00007305B09012000FA02F241F8232000BFFF
:103CE0000C37BD465DF8047B704700BF00E100E083
:103CF00080B483B000AF03463960FB7197F9073099
:103D0000002B0ADB3B68DAB20C4997F90730120145
:103D1000D2B20B4483F800230AE03B68DAB20849C8
:103D2000FB7903F00F03043B1201D2B20B441A7665
:103D300000BF0C37BD465DF8047B704700E100E032
:103D400000ED00E080B489B000AFF860B9607A603F
:103D5000FB6803F00703FB61FB69C3F10703042B56
:103D600028BF0423BB61FB690433062B02D9FB691E
:103D7000033B00E000237B614FF0FF32BB6902FA96
:103D800003F3DA43BB681A407B699A404FF0FF3176
:103D90007B6901FA03F3D9437B680B401343184650
:103DA0002437BD465DF8047B7047000080B582B0C3
:103DB00000AF78607B68013BB3F1807F01D30123C2
:103DC0000FE00A4A7B68013B53600F214FF0FF3040
:103DD000FFF78EFF054B00229A60044B07221A6002
:103DE000002318460837BD4680BD00BF10E000E044
:103DF00080B582B000AF78607868FFF729FF00BF18
:103E00000837BD4680BD80B586B000AF0346B960B7
:103E10007A60FB73FFF740FF78617A68B968786968
:103E2000FFF790FF024697F90F3011461846FFF74B
:103E30005FFF00BF1837BD4680BD80B582B000AFC0
:103E40000346FB7197F907301846FFF733FF00BFB1
:103E50000837BD4680BD80B582B000AF7860786815
:103E6000FFF7A4FF034618460837BD4680BD000093
:103E700080B487B000AF7860396000237B615AE17D
:103E80003B681A6801217B6901FA03F31340FB6068
:103E9000FB68002B00F04C813B685B6803F0030378
:103EA000012B05D03B685B6803F00303022B30D184
:103EB0007B689B683B617B695B00032202FA03F32A
:103EC000DB433A6913403B613B68DA687B695B001E
:103ED00002FA03F33A6913433B617B683A699A60DB
:103EE0007B685B683B6101227B6902FA03F3DB4379
:103EF0003A6913403B613B685B681B0903F00102B0
:103F00007B6902FA03F33A6913433B617B683A69C0
:103F10005A603B685B6803F00303032B17D07B6890
:103F2000DB683B617B695B00032202FA03F3DB433E
:103F30003A6913403B613B689A687B695B0002FA0F
:103F400003F33A6913433B617B683A69DA603B6883
:103F50005B6803F00303022B23D17B69DA087B68DB
:103F6000083253F822303B617B6903F007039B0062
:103F70000F2202FA03F3DB433A6913403B613B68CB
:103F80001A697B6903F007039B0002FA03F33A699D
:103F900013433B617B69DA087B680832396943F86F
:103FA00022107B681B683B617B695B00032202FA7D
:103FB00003F3DB433A6913403B613B685B6803F002
:103FC00003027B695B0002FA03F33A6913433B6126
:103FD0007B683A691A603B685B6803F44033002BE6
:103FE00000F0A6805B4B1B6E5A4A43F00103136638
:103FF000584B1B6E03F00103BB60BB68564A7B69DC
:104000009B08023352F823303B617B6903F00303C2
:104010009B000F2202FA03F3DB433A6913403B6132
:104020007B68B3F1904F1FD07B684C4A934219D004
:104030007B684B4A934213D07B684A4A93420DD027
:104040007B68494A934207D07B68484A934201D132
:1040500005230AE0062308E0042306E0032304E026
:10406000022302E0012300E000237A6902F0030248
:10407000920093403A6913433B6137497B699B083F
:1040800002333A6941F82320394B9B683B61FB6856
:10409000DB433A6913403B613B685B6803F4801380
:1040A000002B03D03A69FB6813433B61304A3B69FC
:1040B00093602F4BDB683B61FB68DB433A6913403D
:1040C0003B613B685B6803F40013002B03D03A6943
:1040D000FB6813433B61264A3B69D360244B5B6812
:1040E0003B61FB68DB433A6913403B613B685B68BB
:1040F00003F40033002B03D03A69FB6813433B61A0
:104100001B4A3B6953601A4B1B683B61FB68DB43EE
:104110003A6913403B613B685B6803F48033002BD2
:1041200003D03A69FB6813433B61114A3B69136052
:104130007B6901337B613B681A687B6922FA03F370
:10414000002B7FF49DAE00BF00BF1C37BD465DF85D
:10415000047B70470010024000000140000400484A
:1041600000080048000C00480010004800140048F7
:104170000004014080B485B000AF78600B467B80BE
:104180007B681A697B881340002B02D00123FB73E4
:1041900001E00023FB73FB7B18461437BD465DF836
:1041A000047B704780B483B000AF78600B467B809F
:1041B00013467B707B78002B03D07A887B689A61EA
:1041C00002E07A887B689A6200BF0C37BD465DF8D2
:1041D000047B704780B584B000AF78607B68002BAB
:1041E00001D10123C0E07B6893F89132DBB2002B50
:1041F00006D17B68002283F89022786808F014F9D1
:104200007B68032283F891227B681B68184603F0C1
:10421000F4FE0023FB733EE0FA7B796813469B00B3
:104220001344DB000B44113301221A70FA7B7968C6
:1042300013469B001344DB000B441033FA7B1A70C7
:10424000FA7B796813469B001344DB000B4413335D
:1042500000221A70FA7B796813469B001344DB0036
:104260000B44203300221A60FA7B796813469B00C6
:104270001344DB000B44243300221A60FB7B796873
:104280005A1C13469B001344DB000B4400221A60A7
:10429000FB7B0133FB737B681B79FA7B9A42BBD3B0
:1042A0000023FB7344E0FA7B796813469B001344B8
:1042B000DB000B4403F2511300221A70FA7B796879
:1042C00013469B001344DB000B4403F5A873FA7BF1
:1042D0001A70FA7B796813469B001344DB000B4489
:1042E00003F2531300221A70FA7B796813469B007D
:1042F0001344DB000B4403F5B07300221A60FA7B11
:10430000796813469B001344DB000B4403F5B2733A
:1043100000221A60FA7B796813469B001344DB0085
:104320000B4403F5B47300221A60FB7B0133FB736B
:104330007B681B79FA7B9A42B5D37B6818687B68E7
:10434000043393E8060003F073FE7B6800221A73BF
:104350007B68012283F891227B689B7A012B02D132
:10436000786801F040FC002318461037BD4680BD38
:1043700080B582B000AF78607B6893F89032012BF3
:1043800001D1022312E07B68012283F890227B682E
:104390001B68184603F01AFE7B681B68184606F077
:1043A000DAF87B68002283F8902200231846083749
:1043B000BD4680BD80B584B000AF78607B681B6867
:1043C000184606F0DFF8F860FB6803F40043002BA2
:1043D00003D0786800F004FB10E1FB6803F480630D
:1043E000002B13D07B681B68B3F844309AB27B680B
:1043F0001B6822F4806292B2A3F84420786808F027
:10440000A4F80021786800F0FCF8F7E0FB6803F4FA
:104410008043002B0CD07B681B68B3F844309AB201
:104420007B681B6822F4804292B2A3F84420E5E046
:10443000FB6803F40053002B0CD07B681B68B3F8B7
:1044400044309AB27B681B6822F4005292B2A3F8FF
:104450004420D3E0FB6803F48053002B34D07B6806
:104460001B68B3F840309AB27B681B6822F00402E4
:1044700092B2A3F840207B681B68B3F840309AB230
:104480007B681B6822F0080292B2A3F840207B6888
:1044900093F8C832012B07D17B68002283F8C82229
:1044A0000021786808F044FA786808F087F87B689B
:1044B0001B68B3F844309AB27B681B6822F48052C0
:1044C00092B2A3F8442099E0FB6803F40063002B48
:1044D00027D07B681B68B3F840309AB27B681B68B2
:1044E00042F0080292B2A3F840207B681B68B3F840
:1044F00044309AB27B681B6822F4006292B2A3F83F
:1045000044207B681B68B3F840309AB27B681B6814
:1045100042F0040292B2A3F84020786808F034F820
:104520006CE0FB6803F08003002B40D07B681B68C5
:10453000B3F844309AB27B681B6822F0800292B2D2
:10454000A3F844207B6893F8C832002B2BD17B68FA
:104550001B68B3F840309AB27B681B6842F00402D3
:1045600092B2A3F840207B681B68B3F840309AB23F
:104570007B681B6842F0080292B2A3F840207B6877
:10458000012283F8C8227B681B68B3F854309BB2C1
:104590009B0803F03C027B68C3F8CC2201217868B9
:1045A00008F0C6F92AE0786807F0EEFF26E0FB681D
:1045B00003F40073002B0FD07B681B68B3F8443002
:1045C0009AB27B681B6822F4007292B2A3F844206E
:1045D000786807F0ACFF11E0FB6803F48073002BF0
:1045E0000CD07B681B68B3F844309AB27B681B68B8
:1045F00022F4807292B2A3F8442000BF1037BD4667
:1046000080BD80B582B000AF78600B46FB707B68E0
:1046100093F89032012B01D1022312E07B68012232
:1046200083F890227B68FA781A737B681B68FA78A3
:104630001146184605F07BFF7B68002283F8902224
:10464000002318460837BD4680BD80B584B000AF52
:104650007860084611461A460346FB700B463B80BD
:104660001346BB700023FB7297F90330002B0EDA60
:10467000FB7803F0070213469B001344DB00103362
:104680007A681344FB60FB6801225A700EE0FB78E5
:1046900003F0070213469B001344DB0003F5A873E5
:1046A0007A681344FB60FB6800225A70FB7803F0C1
:1046B0000703DAB2FB681A703A88FB681A61FB6874
:1046C000BA78DA70BB78022B02D1FB6800221A712B
:1046D0007B6893F89032012B01D102230EE07B68B6
:1046E000012283F890227B681B68F968184603F062
:1046F000BDFC7B68002283F89022FB7A18461037B5
:10470000BD4680BD80B584B000AF78600B46FB70BD
:1047100097F90330002B0EDAFB7803F007021346FB
:104720009B001344DB0010337A681344FB60FB6882
:1047300001225A700EE0FB7803F0070213469B003B
:104740001344DB0003F5A8737A681344FB60FB682D
:1047500000225A70FB7803F00703DAB2FB681A7084
:104760007B6893F89032012B01D102230EE07B6825
:10477000012283F890227B681B68F968184604F0D0
:1047800039F87B68002283F89022002318461037FE
:10479000BD4680BD80B586B000AFF8607A603B60F2
:1047A0000B46FB72FB7A03F0070213469B0013448F
:1047B000DB0003F5A873FA6813447B617B697A68B0
:1047C0005A617B693A689A617B690022DA617B6988
:1047D00000225A70FB7A03F00703DAB27B691A7081
:1047E000FB681B687969184604F0F1F90023184644
:1047F0001837BD4680BD80B483B000AF78600B46EB
:10480000FB70FB7803F00702796813469B001344A2
:10481000DB000B4403F5B6731B6818460C37BD4626
:104820005DF8047B704780B586B000AFF8607A60B1
:104830003B600B46FB72FB7A03F0070213469B00BA
:104840001344DB001033FA6813447B617B697A6898
:104850005A617B693A689A617B69012283F8242056
:104860007B693A681A627B690022DA617B690122FE
:104870005A70FB7A03F00703DAB27B691A70FB689F
:104880001B687969184604F0A2F900231846183706
:10489000BD4680BD80B584B000AF78600B46FB702C
:1048A000FB7803F007037A681279934201D9012358
:1048B0003EE097F90330002B0EDAFB7803F0070295
:1048C00013469B001344DB0010337A681344FB60EB
:1048D000FB6801225A700CE0FA7813469B001344DF
:1048E000DB0003F5A8737A681344FB60FB680022C1
:1048F0005A70FB6801229A70FB7803F00703DAB262
:10490000FB681A707B6893F89032012B01D1022367
:104910000EE07B68012283F890227B681B68F968AF
:10492000184605F005FD7B68002283F890220023DD
:1049300018461037BD4680BD80B584B000AF7860A2
:104940000B46FB70FB7803F00F037A6812799342F1
:1049500001D9012340E097F90330002B0EDAFB78F0
:1049600003F0070213469B001344DB0010337A6800
:104970001344FB60FB6801225A700EE0FB7803F0E1
:10498000070213469B001344DB0003F5A8737A6803
:104990001344FB60FB6800225A70FB6800229A7087
:1049A000FB7803F00703DAB2FB681A707B6893F8B0
:1049B0009032012B01D102230EE07B68012283F8A3
:1049C00090227B681B68F968184605F002FD7B6839
:1049D000002283F89022002318461037BD4680BD80
:1049E00080B596B000AF7860ADE37B681B68B3F824
:1049F0004430A7F84E30B7F84E30DBB203F00F0367
:104A000087F84D3097F84D30002B40F06F81B7F8A4
:104A10004E3003F01003002B4CD17B681B681B88C1
:104A20009BB223F4E14323F07003FB817B681A6897
:104A3000FB896FEA43436FEA53439BB213807B6861
:104A400010337B657B681B68B3F850309BB21A4605
:104A50007B6D1B78DB0013447A681268134403F201
:104A600002431B88C3F309027B6DDA617B6D5A69CF
:104A70007B6DDB691A447B6D5A610021786807F011
:104A80003CFD7B681B7BDBB2002B00F05C837B6D05
:104A90009B69002B40F057837B681B7BDBB263F084
:104AA0007F03DAB27B681B68A3F84C207B68002286
:104AB0001A7348E37B6803F5A8737B657B681B6802
:104AC0001B88A7F84A30B7F84A3003F40063002B7C
:104AD00032D07B681B68B3F850309BB21A467B6DAE
:104AE0001B78DB0013447A681268134403F2064310
:104AF0001B88C3F309027B6DDA617B6818687B68E9
:104B000003F526717B6DDA887B6DDB699BB205F05E
:104B10008BFD7B681B681B889AB240F68F7313402D
:104B20003B827B681B683A8A42F0800292B21A800C
:104B3000786807F0B5FC06E3B7F94A30002B80F23D
:104B400002837B681B681B889AB240F68F73134000
:104B5000FB837B681B68FA8B42F0800292B21A805A
:104B60007B681B68B3F850309BB21A467B6D1B788C
:104B7000DB0013447A681268134403F206431B886F
:104B8000C3F309027B6DDA617B6DDB69002B19D001
:104B90007B6D5B69002B15D07B6818687B6D59694C
:104BA0007B6DDA887B6DDB699BB205F03DFD7B6D2B
:104BB0005A697B6DDB691A447B6D5A610021786804
:104BC00007F080FC7B681B681B88A7F84A30B7F8A1
:104BD0004A3003F40063002B40F0B582B7F84A3046
:104BE00003F44053B3F5405F00F0AD827B681B686F
:104BF000BB617B681B68B3F850309BB21A46BB6937
:104C00001344BB61BB6903F206437B617B691B886C
:104C10009BB2C3F309039AB27B691A807B6D1B694F
:104C20003E2B1DD97B6D1B695B097B647B6D1B690A
:104C300003F01F03002B02D17B6C013B7B647B697B
:104C40001B889AB27B6C9BB29B029BB213439BB2B4
:104C50006FEA43436FEA53439AB27B691A8026E0B6
:104C60007B6D1B69002B0AD17B691B889BB26FEAA5
:104C700043436FEA53439AB27B691A8017E07B6D16
:104C80001B695B087B647B6D1B6903F00103002BD0
:104C900002D07B6C01337B647B691B889AB27B6C8E
:104CA0009BB29B029BB213439AB27B691A807B68CA
:104CB0001B681B889BB223F4804323F070037B8224
:104CC0007B8A83F480537B827B8A83F400537B82CC
:104CD0007B681A687B8A43F07F4343F47F0343F485
:104CE000004343F080039BB213802CE27B681B6877
:104CF0001A4697F84D309B0013441B88A7F84A309A
:104D0000B7F94A30002B80F2F6807B681B681A46A0
:104D100097F84D309B0013441B889AB240F68F736E
:104D20001340A7F848307B681B681A4697F84D3047
:104D30009B001344B7F8482042F0800292B21A80D8
:104D400097F84D2013469B001344DB0003F5A8732E
:104D50007A6813447B657B6D1B7B002B23D17B68BA
:104D60001B68B3F850309BB21A467B6D1B78DB0092
:104D700013447A681268134403F206431B88C3F392
:104D80000903A7F85030B7F85030002B00F08E80A0
:104D90007B6818687B6D59697B6DDA88B7F850308D
:104DA00005F042FC82E07B6DDB78022B0AD1B7F87C
:104DB0004A301A46796D786800F0D3F90346A7F8AF
:104DC000503073E07B681B681A467B6D1B789B0034
:104DD00013441B889BB223F4E04323F07003A7F82D
:104DE00052307B681B681A467B6D1B789B001A4407
:104DF000B7F8523043F07F4343F47F0343F400435A
:104E000043F0C0039BB213807B681B681A467B6D1E
:104E10001B789B0013441B889BB203F48043002B38
:104E200022D07B681B68B3F850309BB21A467B6D6A
:104E30001B78DB0013447A681268134403F20243C0
:104E40001B88C3F30903A7F85030B7F85030002B84
:104E50002CD07B6818687B6D59697B6D1A89B7F80F
:104E6000503005F0E1FB21E07B681B68B3F850305F
:104E70009BB21A467B6D1B78DB0013447A6812687C
:104E8000134403F206431B88C3F30903A7F8503009
:104E9000B7F85030002B09D07B6818687B6D5969D2
:104EA0007B6D5A89B7F8503005F0BEFB7B6DDA692F
:104EB000B7F850301A447B6DDA617B6D5A69B7F8E8
:104EC00050301A447B6D5A617B6D9B69002B05D075
:104ED000B7F850207B6D1B699A4206D27B6D1B7818
:104EE0001946786807F0EEFA05E07B681B68796D73
:104EF000184603F06CFEB7F84A3003F08003002B2D
:104F000000F0218197F84D2013469B001344DB00ED
:104F100010337A6813447B657B681B681A4697F8E0
:104F20004D309B0013441B889BB223F4E14323F0D4
:104F30007003A7F842307B681B681A4697F84D301B
:104F40009B001A44B7F842306FEA43436FEA534379
:104F50009BB213807B6DDB78012B40F0A2807B6DD0
:104F600000229A617B6D1B7B002B00F09380B7F8C9
:104F70004A3003F04003002B46D07B6D5B78002B5A
:104F800026D17B681B687B627B681B68B3F8503056
:104F90009BB21A467B6A13447B627B6D1B78DA00F6
:104FA0007B6A134403F202433B623B6A1B889BB259
:104FB000C3F309039AB23B6A1A803B6A1B889BB20F
:104FC0006FEA43436FEA53439AB23B6A1A8061E047
:104FD0007B6D5B78012B5DD17B681B68FB627B6816
:104FE0001B68B3F850309BB21A46FB6A1344FB624D
:104FF0007B6D1B78DA00FB6A134403F20243BB6249
:10500000BB6A00221A8045E07B681B68FB637B6DEE
:105010005B78002B26D17B681B687B637B681B68F1
:10502000B3F850309BB21A467B6B13447B637B6DA5
:105030001B78DA007B6B134403F206433B633B6B44
:105040001B889BB2C3F309039AB23B6B1A803B6B7C
:105050001B889BB26FEA43436FEA53439AB23B6BA0
:105060001A8017E07B6D5B78012B13D17B681B687E
:10507000B3F850309BB21A46FB6B1344FB637B6D55
:105080001B78DA00FB6B134403F20643BB63BB6B74
:1050900000221A807B6D1B781946786807F02DFA7C
:1050A00051E0B7F84A3003F48073002B44D17B6899
:1050B0001B68B3F850309BB21A467B6D1B78DB003F
:1050C00013447A681268134403F202431B88C3F343
:1050D0000903A7F840307B6D9A69B7F840309A42CF
:1050E00007D97B6D9A69B7F84030D21A7B6D9A6107
:1050F00002E07B6D00229A617B6D9B69002B06D1DB
:105100007B6D1B781946786807F0F7F91BE07B6D1B
:105110005A69B7F840301A447B6D5A617B6DDA6981
:10512000B7F840301A447B6DDA617B681B68796D93
:10513000184603F04CFD06E0B7F84A301A46796D80
:10514000786800F017F97B681B68B3F844309BB2AD
:105150001BB2002BFFF649AC002318465837BD465A
:1051600080BD80B588B000AFF860B9601346FB80A1
:10517000FB8803F48043002B7CD0FB681B68B3F8EA
:1051800050309BB21A46BB681B78DB001344FA68A8
:105190001268134403F202431B88C3F309037B83A1
:1051A000BB689A697B8B9A4206D3BB689A697B8BF2
:1051B000D21ABB689A6102E0BB6800229A61BB68A0
:1051C0009B69002B23D1FB681B681A46BB681B78C0
:1051D0009B0013441B889BB223F4804323F070038D
:1051E0003B833B8B83F400533B83FB681B681A466D
:1051F000BB681B789B001A443B8B43F07F4343F40E
:105200007F0343F4004343F080039BB21380FB8889
:1052100003F04003002B1FD0FB681B681A46BB68D5
:105220001B789B0013441B889BB223F4E04323F0BC
:105230007003FB82FB681B681A46BB681B789B00E7
:105240001A44FB8A43F07F4343F47F0343F4004353
:1052500043F0C0039BB213807B8B002B00F0858052
:10526000FB681868BB685969BB681A897B8B05F0B5
:10527000DBF97AE0FB681B68B3F850309BB21A4642
:10528000BB681B78DB001344FA681268134403F20E
:1052900006431B88C3F309037B83BB689A697B8B36
:1052A0009A4206D3BB689A697B8BD21ABB689A6113
:1052B00002E0BB6800229A61BB689B69002B23D186
:1052C000FB681B681A46BB681B789B0013441B884D
:1052D0009BB223F4804323F07003FB83FB8B83F4A6
:1052E0000053FB83FB681B681A46BB681B789B0056
:1052F0001A44FB8B43F07F4343F47F0343F40043A2
:1053000043F080039BB21380FB8803F04003002B23
:105310001FD1FB681B681A46BB681B789B001344AF
:105320001B889BB223F4E04323F07003BB83FB682C
:105330001B681A46BB681B789B001A44BB8B43F062
:105340007F4343F47F0343F4004343F0C0039BB225
:1053500013807B8B002B08D0FB681868BB685969E9
:10536000BB685A897B8B05F05FF97B8B1846203729
:10537000BD4680BD80B5A4B000AFF860B9601346EB
:10538000FB80FB8803F04003002B00F0DB81FB680F
:105390001B68B3F850309BB21A46BB681B78DB0021
:1053A0001344FA681268134403F202431B88C3F3E0
:1053B0000903A7F88630BB689A69B7F886309A4225
:1053C00007D9BB689A69B7F88630D21ABB689A6168
:1053D00002E0BB6800229A61BB689B69002B40F029
:1053E000B980BB685B78002B26D1FB681B68FB6229
:1053F000FB681B68B3F850309BB21A46FB6A134433
:10540000FB62BB681B78DA00FB6A134403F20243B9
:10541000BB62BB6A1B889BB2C3F309039AB2BB6A27
:105420001A80BB6A1B889BB26FEA43436FEA5343FF
:105430009AB2BB6A1A801AE0BB685B78012B16D15E
:10544000FB681B687B63FB681B68B3F850309BB23A
:105450001A467B6B13447B63BB681B78DA007B6B5B
:10546000134403F202433B633B6B00221A80FB6848
:105470001B687B62BB685B78002B26D1FB681B68CE
:10548000FB61FB681B68B3F850309BB21A46FB699E
:105490001344FB61BB681B78DA00FB69134403F219
:1054A0000643BB61BB691B889BB2C3F309039AB275
:1054B000BB691A80BB691B889BB26FEA43436FEAE2
:1054C00053439AB2BB691A8017E0BB685B78012B23
:1054D00013D1FB681B68B3F850309BB21A467B6A45
:1054E00013447B62BB681B78DA007B6A134403F2C7
:1054F00006433B623B6A00221A80BB681B78194650
:10550000F86806F0FAFFFB8803F48043002B00F0F4
:10551000FA82FB681B681A46BB681B789B00134421
:105520001B889BB223F4E04323F07003FB82FB68EB
:105530001B681A46BB681B789B001A44FB8A43F021
:105540007F4343F47F0343F4404343F080039BB223
:105550001380D8E2FB8803F48043002B21D0FB6842
:105560001B681A46BB681B789B0013441B889BB2C0
:1055700023F4E04323F07003A7F88A30FB681B682C
:105580001A46BB681B789B001A44B7F88A3043F070
:105590007F4343F47F0343F4404343F080039BB2D3
:1055A0001380BB6893F82430012B40F0AC82BB68B9
:1055B0005A69B7F886301A44BB685A61BB68DA6921
:1055C000B7F886301A44BB68DA61BB681A6ABB68F0
:1055D0001B699A420BD3BB681B69C7F88C30BB6848
:1055E0001A6AD7F88C30D21ABB681A6217E0BB6807
:1055F0001B6A002B08D1B7F88630C7F88C30BB681F
:10560000002283F824200AE0BB68002283F82420CB
:10561000BB681B6AC7F88C30BB6800221A62BB6883
:105620005B78002B65D1FB681B68FB63FB681B681C
:10563000B3F850309BB21A46FB6B1344FB63BB6854
:105640001B78DA00FB6B134403F20243BB63BB6BB2
:105650001B889BB2C3F309039AB2BB6B1A80D7F8BD
:105660008C303E2B1DD9D7F88C305B09BB64D7F842
:105670008C3003F01F03002B02D1BB6C013BBB64D9
:10568000BB6B1B889AB2BB6C9BB29B029BB2134351
:105690009BB26FEA43436FEA53439AB2BB6B1A80E3
:1056A00044E0D7F88C30002B0AD1BB6B1B889BB22F
:1056B0006FEA43436FEA53439AB2BB6B1A8035E0FB
:1056C000D7F88C305B08BB64D7F88C3003F001034B
:1056D000002B02D0BB6C0133BB64BB6B1B889AB23E
:1056E000BB6C9BB29B029BB213439AB2BB6B1A80FA
:1056F0001CE0BB685B78012B18D1FB681B687B64DE
:10570000FB681B68B3F850309BB21A467B6C13449D
:105710007B64BB681B78DA007B6C134403F20243A2
:105720003B64D7F88C309AB23B6C1A80FB681868DF
:10573000BB685969BB681A89D7F88C309BB204F0F2
:1057400031FFE0E1FB681B68B3F850309BB21A46AA
:10575000BB681B78DB001344FA681268134403F239
:1057600006431B88C3F30903A7F88630BB689A6910
:10577000B7F886309A4207D3BB689A69B7F8863083
:10578000D21ABB689A6102E0BB6800229A61BB68CA
:105790009B69002B40F0C080BB685B78002B26D152
:1057A000FB681B68FB67FB681B68B3F850309BB253
:1057B0001A46FB6F1344FB67BB681B78DA00FB6F6C
:1057C000134403F20243BB67BB6F1B889BB2C3F356
:1057D00009039AB2BB6F1A80BB6F1B889BB26FEA3A
:1057E00043436FEA53439AB2BB6F1A801AE0BB6817
:1057F0005B78012B16D1FB681B687B66FB681B6816
:10580000B3F850309BB21A467B6E13447B66BB687C
:105810001B78DA007B6E134403F202433B663B6E57
:1058200000221A80FB681B687B67BB685B78002BD3
:105830002BD1FB681B68FB66FB681B68B3F8503014
:105840009BB21A46FB6E1344FB66BB681B78DA00FA
:10585000FB6E134403F20643C7F88030D7F880305C
:105860001B889BB2C3F309039AB2D7F880301A8021
:10587000D7F880301B889BB26FEA43436FEA5343EB
:105880009AB2D7F880301A8017E0BB685B78012B9A
:1058900013D1FB681B68B3F850309BB21A467B6F7C
:1058A00013447B67BB681B78DA007B6F134403F2F9
:1058B00006433B673B6F00221A80BB681B78194682
:1058C000F86806F01AFEFB8803F48043002B40F0D2
:1058D0001A81FB681B681A46BB681B789B0013443F
:1058E0001B889BB223F4E04323F07003A7F88830B1
:1058F000FB681B681A46BB681B789B001A44B7F804
:10590000883043F07F4343F47F0343F4404343F044
:1059100080039BB21380F6E0FB8803F48043002BE6
:1059200021D1FB681B681A46BB681B789B00134497
:105930001B889BB223F4E04323F07003A7F84E309A
:10594000FB681B681A46BB681B789B001A44B7F8B3
:105950004E3043F07F4343F47F0343F4404343F02E
:1059600080039BB21380BB6893F82430012B40F076
:10597000CA80BB685A69B7F886301A44BB685A6156
:10598000BB68DA69B7F886301A44BB68DA61BB686D
:105990001A6ABB681B699A420BD3BB681B69C7F8BC
:1059A0008C30BB681A6AD7F88C30D21ABB681A627E
:1059B00017E0BB681B6A002B08D1B7F88630C7F820
:1059C0008C30BB68002283F824200AE0BB681B6A85
:1059D000C7F88C30BB6800221A62BB68002283F8CB
:1059E0002420FB681B687B65BB685B78002B65D156
:1059F000FB681B68FB65FB681B68B3F850309BB203
:105A00001A46FB6D1344FB65BB681B78DA00FB6D1F
:105A1000134403F20643BB65BB6D1B889BB2C3F303
:105A200009039AB2BB6D1A80D7F88C303E2B1DD972
:105A3000D7F88C305B09BB66D7F88C3003F01F03B6
:105A4000002B02D1BB6E013BBB66BB6D1B889AB2BB
:105A5000BB6E9BB29B029BB213439BB26FEA434364
:105A60006FEA53439AB2BB6D1A8041E0D7F88C308D
:105A7000002B0AD1BB6D1B889BB26FEA43436FEAD0
:105A800053439AB2BB6D1A8032E0D7F88C305B0872
:105A9000BB66D7F88C3003F00103002B02D0BB6E3D
:105AA0000133BB66BB6D1B889AB2BB6E9BB29B0277
:105AB0009BB213439AB2BB6D1A8019E0BB685B7846
:105AC000012B15D1FB681B68B3F850309BB21A4606
:105AD0007B6D13447B65BB681B78DA007B6D1344D8
